{
  "_format": "hh-sol-artifact-1",
  "contractName": "OptionVault",
  "sourceName": "contracts/OptionVault.sol",
  "abi": [
    {
      "inputs": [],
      "stateMutability": "nonpayable",
      "type": "constructor"
    },
    {
      "anonymous": false,
      "inputs": [
        {
          "indexed": true,
          "internalType": "address",
          "name": "owner",
          "type": "address"
        },
        {
          "indexed": true,
          "internalType": "address",
          "name": "approved",
          "type": "address"
        },
        {
          "indexed": true,
          "internalType": "uint256",
          "name": "tokenId",
          "type": "uint256"
        }
      ],
      "name": "Approval",
      "type": "event"
    },
    {
      "anonymous": false,
      "inputs": [
        {
          "indexed": true,
          "internalType": "address",
          "name": "owner",
          "type": "address"
        },
        {
          "indexed": true,
          "internalType": "address",
          "name": "operator",
          "type": "address"
        },
        {
          "indexed": false,
          "internalType": "bool",
          "name": "approved",
          "type": "bool"
        }
      ],
      "name": "ApprovalForAll",
      "type": "event"
    },
    {
      "anonymous": false,
      "inputs": [
        {
          "indexed": true,
          "internalType": "address",
          "name": "previousOwner",
          "type": "address"
        },
        {
          "indexed": true,
          "internalType": "address",
          "name": "newOwner",
          "type": "address"
        }
      ],
      "name": "OwnershipTransferred",
      "type": "event"
    },
    {
      "anonymous": false,
      "inputs": [
        {
          "indexed": true,
          "internalType": "address",
          "name": "from",
          "type": "address"
        },
        {
          "indexed": true,
          "internalType": "address",
          "name": "to",
          "type": "address"
        },
        {
          "indexed": true,
          "internalType": "uint256",
          "name": "tokenId",
          "type": "uint256"
        }
      ],
      "name": "Transfer",
      "type": "event"
    },
    {
      "inputs": [
        {
          "internalType": "address",
          "name": "to",
          "type": "address"
        },
        {
          "internalType": "uint256",
          "name": "tokenId",
          "type": "uint256"
        }
      ],
      "name": "approve",
      "outputs": [],
      "stateMutability": "nonpayable",
      "type": "function"
    },
    {
      "inputs": [
        {
          "internalType": "address",
          "name": "owner",
          "type": "address"
        }
      ],
      "name": "balanceOf",
      "outputs": [
        {
          "internalType": "uint256",
          "name": "",
          "type": "uint256"
        }
      ],
      "stateMutability": "view",
      "type": "function"
    },
    {
      "inputs": [
        {
          "internalType": "uint256",
          "name": "optionId",
          "type": "uint256"
        }
      ],
      "name": "cancelOption",
      "outputs": [
        {
          "internalType": "bool",
          "name": "",
          "type": "bool"
        }
      ],
      "stateMutability": "nonpayable",
      "type": "function"
    },
    {
      "inputs": [
        {
          "internalType": "uint256",
          "name": "strikePrice",
          "type": "uint256"
        },
        {
          "internalType": "uint256",
          "name": "expirationDate",
          "type": "uint256"
        },
        {
          "internalType": "uint256",
          "name": "underlyingValue",
          "type": "uint256"
        },
        {
          "internalType": "string",
          "name": "assetSymbol",
          "type": "string"
        },
        {
          "internalType": "bool",
          "name": "isCall",
          "type": "bool"
        }
      ],
      "name": "createCallOption",
      "outputs": [
        {
          "internalType": "uint256",
          "name": "optionID",
          "type": "uint256"
        }
      ],
      "stateMutability": "payable",
      "type": "function"
    },
    {
      "inputs": [
        {
          "internalType": "uint256",
          "name": "_optionId",
          "type": "uint256"
        }
      ],
      "name": "exerciseCallOption",
      "outputs": [],
      "stateMutability": "nonpayable",
      "type": "function"
    },
    {
      "inputs": [
        {
          "internalType": "uint256",
          "name": "optionId",
          "type": "uint256"
        }
      ],
      "name": "expireOption",
      "outputs": [],
      "stateMutability": "nonpayable",
      "type": "function"
    },
    {
      "inputs": [
        {
          "internalType": "uint256",
          "name": "tokenId",
          "type": "uint256"
        }
      ],
      "name": "getApproved",
      "outputs": [
        {
          "internalType": "address",
          "name": "",
          "type": "address"
        }
      ],
      "stateMutability": "view",
      "type": "function"
    },
    {
      "inputs": [
        {
          "internalType": "address",
          "name": "owner",
          "type": "address"
        },
        {
          "internalType": "address",
          "name": "operator",
          "type": "address"
        }
      ],
      "name": "isApprovedForAll",
      "outputs": [
        {
          "internalType": "bool",
          "name": "",
          "type": "bool"
        }
      ],
      "stateMutability": "view",
      "type": "function"
    },
    {
      "inputs": [],
      "name": "name",
      "outputs": [
        {
          "internalType": "string",
          "name": "",
          "type": "string"
        }
      ],
      "stateMutability": "view",
      "type": "function"
    },
    {
      "inputs": [
        {
          "internalType": "uint256",
          "name": "",
          "type": "uint256"
        }
      ],
      "name": "options",
      "outputs": [
        {
          "internalType": "uint256",
          "name": "strikePrice",
          "type": "uint256"
        },
        {
          "internalType": "uint256",
          "name": "expirationDate",
          "type": "uint256"
        },
        {
          "internalType": "uint256",
          "name": "underlyingValue",
          "type": "uint256"
        },
        {
          "internalType": "uint256",
          "name": "optionId",
          "type": "uint256"
        },
        {
          "internalType": "string",
          "name": "assetSymbol",
          "type": "string"
        },
        {
          "internalType": "bool",
          "name": "isCall",
          "type": "bool"
        },
        {
          "internalType": "address payable",
          "name": "counterpartyAddress",
          "type": "address"
        }
      ],
      "stateMutability": "view",
      "type": "function"
    },
    {
      "inputs": [],
      "name": "owner",
      "outputs": [
        {
          "internalType": "address",
          "name": "",
          "type": "address"
        }
      ],
      "stateMutability": "view",
      "type": "function"
    },
    {
      "inputs": [
        {
          "internalType": "uint256",
          "name": "tokenId",
          "type": "uint256"
        }
      ],
      "name": "ownerOf",
      "outputs": [
        {
          "internalType": "address",
          "name": "",
          "type": "address"
        }
      ],
      "stateMutability": "view",
      "type": "function"
    },
    {
      "inputs": [],
      "name": "renounceOwnership",
      "outputs": [],
      "stateMutability": "nonpayable",
      "type": "function"
    },
    {
      "inputs": [
        {
          "internalType": "address",
          "name": "from",
          "type": "address"
        },
        {
          "internalType": "address",
          "name": "to",
          "type": "address"
        },
        {
          "internalType": "uint256",
          "name": "tokenId",
          "type": "uint256"
        }
      ],
      "name": "safeTransferFrom",
      "outputs": [],
      "stateMutability": "nonpayable",
      "type": "function"
    },
    {
      "inputs": [
        {
          "internalType": "address",
          "name": "from",
          "type": "address"
        },
        {
          "internalType": "address",
          "name": "to",
          "type": "address"
        },
        {
          "internalType": "uint256",
          "name": "tokenId",
          "type": "uint256"
        },
        {
          "internalType": "bytes",
          "name": "data",
          "type": "bytes"
        }
      ],
      "name": "safeTransferFrom",
      "outputs": [],
      "stateMutability": "nonpayable",
      "type": "function"
    },
    {
      "inputs": [
        {
          "internalType": "address",
          "name": "operator",
          "type": "address"
        },
        {
          "internalType": "bool",
          "name": "approved",
          "type": "bool"
        }
      ],
      "name": "setApprovalForAll",
      "outputs": [],
      "stateMutability": "nonpayable",
      "type": "function"
    },
    {
      "inputs": [
        {
          "internalType": "bytes4",
          "name": "interfaceId",
          "type": "bytes4"
        }
      ],
      "name": "supportsInterface",
      "outputs": [
        {
          "internalType": "bool",
          "name": "",
          "type": "bool"
        }
      ],
      "stateMutability": "view",
      "type": "function"
    },
    {
      "inputs": [],
      "name": "symbol",
      "outputs": [
        {
          "internalType": "string",
          "name": "",
          "type": "string"
        }
      ],
      "stateMutability": "view",
      "type": "function"
    },
    {
      "inputs": [
        {
          "internalType": "uint256",
          "name": "tokenId",
          "type": "uint256"
        }
      ],
      "name": "tokenURI",
      "outputs": [
        {
          "internalType": "string",
          "name": "",
          "type": "string"
        }
      ],
      "stateMutability": "view",
      "type": "function"
    },
    {
      "inputs": [
        {
          "internalType": "address",
          "name": "from",
          "type": "address"
        },
        {
          "internalType": "address",
          "name": "to",
          "type": "address"
        },
        {
          "internalType": "uint256",
          "name": "tokenId",
          "type": "uint256"
        }
      ],
      "name": "transferFrom",
      "outputs": [],
      "stateMutability": "nonpayable",
      "type": "function"
    },
    {
      "inputs": [
        {
          "internalType": "address",
          "name": "newOwner",
          "type": "address"
        }
      ],
      "name": "transferOwnership",
      "outputs": [],
      "stateMutability": "nonpayable",
      "type": "function"
    }
  ],
  "bytecode": "0x60806040523480156200001157600080fd5b506040518060400160405280600681526020017f4f7074696f6e00000000000000000000000000000000000000000000000000008152506040518060400160405280600381526020017f4f5054000000000000000000000000000000000000000000000000000000000081525081600090816200008f91906200046d565b508060019081620000a191906200046d565b505050620000c4620000b86200012560201b60201c565b6200012d60201b60201c565b600073ff970a61a04b1ca14834a43f5de4533ebddb5cc8905080600a60006101000a81548173ffffffffffffffffffffffffffffffffffffffff021916908373ffffffffffffffffffffffffffffffffffffffff1602179055505062000554565b600033905090565b6000600660009054906101000a900473ffffffffffffffffffffffffffffffffffffffff16905081600660006101000a81548173ffffffffffffffffffffffffffffffffffffffff021916908373ffffffffffffffffffffffffffffffffffffffff1602179055508173ffffffffffffffffffffffffffffffffffffffff168173ffffffffffffffffffffffffffffffffffffffff167f8be0079c531659141344cd1fd0a4f28419497f9722a3daafe3b4186f6b6457e060405160405180910390a35050565b600081519050919050565b7f4e487b7100000000000000000000000000000000000000000000000000000000600052604160045260246000fd5b7f4e487b7100000000000000000000000000000000000000000000000000000000600052602260045260246000fd5b600060028204905060018216806200027557607f821691505b6020821081036200028b576200028a6200022d565b5b50919050565b60008190508160005260206000209050919050565b60006020601f8301049050919050565b600082821b905092915050565b600060088302620002f57fffffffffffffffffffffffffffffffffffffffffffffffffffffffffffffffff82620002b6565b620003018683620002b6565b95508019841693508086168417925050509392505050565b6000819050919050565b6000819050919050565b60006200034e62000348620003428462000319565b62000323565b62000319565b9050919050565b6000819050919050565b6200036a836200032d565b62000382620003798262000355565b848454620002c3565b825550505050565b600090565b620003996200038a565b620003a68184846200035f565b505050565b5b81811015620003ce57620003c26000826200038f565b600181019050620003ac565b5050565b601f8211156200041d57620003e78162000291565b620003f284620002a6565b8101602085101562000402578190505b6200041a6200041185620002a6565b830182620003ab565b50505b505050565b600082821c905092915050565b6000620004426000198460080262000422565b1980831691505092915050565b60006200045d83836200042f565b9150826002028217905092915050565b6200047882620001f3565b67ffffffffffffffff811115620004945762000493620001fe565b5b620004a082546200025c565b620004ad828285620003d2565b600060209050601f831160018114620004e55760008415620004d0578287015190505b620004dc85826200044f565b8655506200054c565b601f198416620004f58662000291565b60005b828110156200051f57848901518255600182019150602085019450602081019050620004f8565b868310156200053f57848901516200053b601f8916826200042f565b8355505b6001600288020188555050505b505050505050565b613dc880620005646000396000f3fe60806040526004361061012a5760003560e01c8063715018a6116100ab578063b88d4fde1161006f578063b88d4fde146103f4578063c87b56dd1461041d578063ca6114a91461045a578063de6bf6351461048a578063e985e9c5146104c7578063f2fde38b146105045761012a565b8063715018a6146103355780638da5cb5b1461034c57806395d89b4114610377578063a22cb465146103a2578063a88e76f4146103cb5761012a565b806323b872dd116100f257806323b872dd14610226578063409e22051461024f57806342842e0e146102925780636352211e146102bb57806370a08231146102f85761012a565b806301ffc9a71461012f57806302f126e81461016c57806306fdde0314610195578063081812fc146101c0578063095ea7b3146101fd575b600080fd5b34801561013b57600080fd5b50610156600480360381019061015191906126d6565b61052d565b604051610163919061271e565b60405180910390f35b34801561017857600080fd5b50610193600480360381019061018e919061276f565b61060f565b005b3480156101a157600080fd5b506101aa6106fa565b6040516101b7919061282c565b60405180910390f35b3480156101cc57600080fd5b506101e760048036038101906101e2919061276f565b61078c565b6040516101f4919061288f565b60405180910390f35b34801561020957600080fd5b50610224600480360381019061021f91906128d6565b6107d2565b005b34801561023257600080fd5b5061024d60048036038101906102489190612916565b6108e9565b005b34801561025b57600080fd5b506102766004803603810190610271919061276f565b610949565b6040516102899796959493929190612999565b60405180910390f35b34801561029e57600080fd5b506102b960048036038101906102b49190612916565b610a40565b005b3480156102c757600080fd5b506102e260048036038101906102dd919061276f565b610a60565b6040516102ef919061288f565b60405180910390f35b34801561030457600080fd5b5061031f600480360381019061031a9190612a0f565b610ae6565b60405161032c9190612a3c565b60405180910390f35b34801561034157600080fd5b5061034a610b9d565b005b34801561035857600080fd5b50610361610bb1565b60405161036e919061288f565b60405180910390f35b34801561038357600080fd5b5061038c610bdb565b604051610399919061282c565b60405180910390f35b3480156103ae57600080fd5b506103c960048036038101906103c49190612a83565b610c6d565b005b3480156103d757600080fd5b506103f260048036038101906103ed919061276f565b610c83565b005b34801561040057600080fd5b5061041b60048036038101906104169190612bf8565b610f83565b005b34801561042957600080fd5b50610444600480360381019061043f919061276f565b610fe5565b604051610451919061282c565b60405180910390f35b610474600480360381019061046f9190612d1c565b61104d565b6040516104819190612a3c565b60405180910390f35b34801561049657600080fd5b506104b160048036038101906104ac919061276f565b6111f4565b6040516104be919061271e565b60405180910390f35b3480156104d357600080fd5b506104ee60048036038101906104e99190612db3565b61128e565b6040516104fb919061271e565b60405180910390f35b34801561051057600080fd5b5061052b60048036038101906105269190612a0f565b611322565b005b60007f80ac58cd000000000000000000000000000000000000000000000000000000007bffffffffffffffffffffffffffffffffffffffffffffffffffffffff1916827bffffffffffffffffffffffffffffffffffffffffffffffffffffffff191614806105f857507f5b5e139f000000000000000000000000000000000000000000000000000000007bffffffffffffffffffffffffffffffffffffffffffffffffffffffff1916827bffffffffffffffffffffffffffffffffffffffffffffffffffffffff1916145b806106085750610607826113a5565b5b9050919050565b803373ffffffffffffffffffffffffffffffffffffffff166106308261140f565b60c0015173ffffffffffffffffffffffffffffffffffffffff161461065457600080fd5b600061065f8361140f565b905061066a81611567565b156106aa576040517f08c379a00000000000000000000000000000000000000000000000000000000081526004016106a190612e65565b60405180910390fd5b3373ffffffffffffffffffffffffffffffffffffffff166108fc82604001519081150290604051600060405180830381858888f193505050501580156106f4573d6000803e3d6000fd5b50505050565b60606000805461070990612eb4565b80601f016020809104026020016040519081016040528092919081815260200182805461073590612eb4565b80156107825780601f1061075757610100808354040283529160200191610782565b820191906000526020600020905b81548152906001019060200180831161076557829003601f168201915b5050505050905090565b600061079782611578565b6004600083815260200190815260200160002060009054906101000a900473ffffffffffffffffffffffffffffffffffffffff169050919050565b60006107dd82610a60565b90508073ffffffffffffffffffffffffffffffffffffffff168373ffffffffffffffffffffffffffffffffffffffff160361084d576040517f08c379a000000000000000000000000000000000000000000000000000000000815260040161084490612f57565b60405180910390fd5b8073ffffffffffffffffffffffffffffffffffffffff1661086c6115c3565b73ffffffffffffffffffffffffffffffffffffffff16148061089b575061089a816108956115c3565b61128e565b5b6108da576040517f08c379a00000000000000000000000000000000000000000000000000000000081526004016108d190612fe9565b60405180910390fd5b6108e483836115cb565b505050565b6108fa6108f46115c3565b82611684565b610939576040517f08c379a00000000000000000000000000000000000000000000000000000000081526004016109309061307b565b60405180910390fd5b610944838383611719565b505050565b600760205280600052604060002060009150905080600001549080600101549080600201549080600301549080600401805461098490612eb4565b80601f01602080910402602001604051908101604052809291908181526020018280546109b090612eb4565b80156109fd5780601f106109d2576101008083540402835291602001916109fd565b820191906000526020600020905b8154815290600101906020018083116109e057829003601f168201915b5050505050908060050160009054906101000a900460ff16908060050160019054906101000a900473ffffffffffffffffffffffffffffffffffffffff16905087565b610a5b83838360405180602001604052806000815250610f83565b505050565b600080610a6c83611a12565b9050600073ffffffffffffffffffffffffffffffffffffffff168173ffffffffffffffffffffffffffffffffffffffff1603610add576040517f08c379a0000000000000000000000000000000000000000000000000000000008152600401610ad4906130e7565b60405180910390fd5b80915050919050565b60008073ffffffffffffffffffffffffffffffffffffffff168273ffffffffffffffffffffffffffffffffffffffff1603610b56576040517f08c379a0000000000000000000000000000000000000000000000000000000008152600401610b4d90613179565b60405180910390fd5b600360008373ffffffffffffffffffffffffffffffffffffffff1673ffffffffffffffffffffffffffffffffffffffff168152602001908152602001600020549050919050565b610ba5611a4f565b610baf6000611acd565b565b6000600660009054906101000a900473ffffffffffffffffffffffffffffffffffffffff16905090565b606060018054610bea90612eb4565b80601f0160208091040260200160405190810160405280929190818152602001828054610c1690612eb4565b8015610c635780601f10610c3857610100808354040283529160200191610c63565b820191906000526020600020905b815481529060010190602001808311610c4657829003601f168201915b5050505050905090565b610c7f610c786115c3565b8383611b93565b5050565b6000610c8e8261140f565b9050610c9982610a60565b73ffffffffffffffffffffffffffffffffffffffff163373ffffffffffffffffffffffffffffffffffffffff1614610d06576040517f08c379a0000000000000000000000000000000000000000000000000000000008152600401610cfd9061320b565b60405180910390fd5b600115158160a00151151514610d51576040517f08c379a0000000000000000000000000000000000000000000000000000000008152600401610d4890613277565b60405180910390fd5b610d5a81611567565b610d99576040517f08c379a0000000000000000000000000000000000000000000000000000000008152600401610d9090613309565b60405180910390fd5b8060000151600a60009054906101000a900473ffffffffffffffffffffffffffffffffffffffff1673ffffffffffffffffffffffffffffffffffffffff166370a08231336040518263ffffffff1660e01b8152600401610df9919061288f565b602060405180830381865afa158015610e16573d6000803e3d6000fd5b505050506040513d601f19601f82011682018060405250810190610e3a919061333e565b1015610e7b576040517f08c379a0000000000000000000000000000000000000000000000000000000008152600401610e72906133dd565b60405180910390fd5b600a60009054906101000a900473ffffffffffffffffffffffffffffffffffffffff1673ffffffffffffffffffffffffffffffffffffffff166323b872dd338360c0015184600001516040518463ffffffff1660e01b8152600401610ee29392919061345c565b6020604051808303816000875af1158015610f01573d6000803e3d6000fd5b505050506040513d601f19601f82011682018060405250810190610f2591906134a8565b508060c0015173ffffffffffffffffffffffffffffffffffffffff166108fc82604001519081150290604051600060405180830381858888f19350505050158015610f74573d6000803e3d6000fd5b50610f7e826111f4565b505050565b610f94610f8e6115c3565b83611684565b610fd3576040517f08c379a0000000000000000000000000000000000000000000000000000000008152600401610fca9061307b565b60405180910390fd5b610fdf84848484611cff565b50505050565b6060610ff082611578565b6000610ffa611d5b565b9050600081511161101a5760405180602001604052806000815250611045565b8061102484611d72565b604051602001611035929190613511565b6040516020818303038152906040525b915050919050565b60008334101561105c57600080fd5b600060085490506008600081548092919061107690613564565b91905055506110853382611e40565b60006040518060e0016040528089815260200188815260200187815260200183815260200186815260200185151581526020013373ffffffffffffffffffffffffffffffffffffffff1681525090508060076000848152602001908152602001600020600082015181600001556020820151816001015560408201518160020155606082015181600301556080820151816004019081611125919061374e565b5060a08201518160050160006101000a81548160ff02191690831515021790555060c08201518160050160016101000a81548173ffffffffffffffffffffffffffffffffffffffff021916908373ffffffffffffffffffffffffffffffffffffffff16021790555090505034600960003373ffffffffffffffffffffffffffffffffffffffff1673ffffffffffffffffffffffffffffffffffffffff16815260200190815260200160002060008282546111df9190613820565b92505081905550819250505095945050505050565b6000813373ffffffffffffffffffffffffffffffffffffffff166112178261140f565b60c0015173ffffffffffffffffffffffffffffffffffffffff161461123b57600080fd5b3373ffffffffffffffffffffffffffffffffffffffff1661125b84610a60565b73ffffffffffffffffffffffffffffffffffffffff161461127b57600080fd5b6112848361205d565b6001915050919050565b6000600560008473ffffffffffffffffffffffffffffffffffffffff1673ffffffffffffffffffffffffffffffffffffffff16815260200190815260200160002060008373ffffffffffffffffffffffffffffffffffffffff1673ffffffffffffffffffffffffffffffffffffffff16815260200190815260200160002060009054906101000a900460ff16905092915050565b61132a611a4f565b600073ffffffffffffffffffffffffffffffffffffffff168173ffffffffffffffffffffffffffffffffffffffff1603611399576040517f08c379a0000000000000000000000000000000000000000000000000000000008152600401611390906138c6565b60405180910390fd5b6113a281611acd565b50565b60007f01ffc9a7000000000000000000000000000000000000000000000000000000007bffffffffffffffffffffffffffffffffffffffffffffffffffffffff1916827bffffffffffffffffffffffffffffffffffffffffffffffffffffffff1916149050919050565b611417612615565b600760008381526020019081526020016000206040518060e00160405290816000820154815260200160018201548152602001600282015481526020016003820154815260200160048201805461146d90612eb4565b80601f016020809104026020016040519081016040528092919081815260200182805461149990612eb4565b80156114e65780601f106114bb576101008083540402835291602001916114e6565b820191906000526020600020905b8154815290600101906020018083116114c957829003601f168201915b505050505081526020016005820160009054906101000a900460ff161515151581526020016005820160019054906101000a900473ffffffffffffffffffffffffffffffffffffffff1673ffffffffffffffffffffffffffffffffffffffff1673ffffffffffffffffffffffffffffffffffffffff16815250509050919050565b600042826020015111159050919050565b611581816121ab565b6115c0576040517f08c379a00000000000000000000000000000000000000000000000000000000081526004016115b7906130e7565b60405180910390fd5b50565b600033905090565b816004600083815260200190815260200160002060006101000a81548173ffffffffffffffffffffffffffffffffffffffff021916908373ffffffffffffffffffffffffffffffffffffffff160217905550808273ffffffffffffffffffffffffffffffffffffffff1661163e83610a60565b73ffffffffffffffffffffffffffffffffffffffff167f8c5be1e5ebec7d5bd14f71427d1e84f3dd0314c0f7b2291e5b200ac8c7c3b92560405160405180910390a45050565b60008061169083610a60565b90508073ffffffffffffffffffffffffffffffffffffffff168473ffffffffffffffffffffffffffffffffffffffff1614806116d257506116d1818561128e565b5b8061171057508373ffffffffffffffffffffffffffffffffffffffff166116f88461078c565b73ffffffffffffffffffffffffffffffffffffffff16145b91505092915050565b8273ffffffffffffffffffffffffffffffffffffffff1661173982610a60565b73ffffffffffffffffffffffffffffffffffffffff161461178f576040517f08c379a000000000000000000000000000000000000000000000000000000000815260040161178690613958565b60405180910390fd5b600073ffffffffffffffffffffffffffffffffffffffff168273ffffffffffffffffffffffffffffffffffffffff16036117fe576040517f08c379a00000000000000000000000000000000000000000000000000000000081526004016117f5906139ea565b60405180910390fd5b61180b83838360016121ec565b8273ffffffffffffffffffffffffffffffffffffffff1661182b82610a60565b73ffffffffffffffffffffffffffffffffffffffff1614611881576040517f08c379a000000000000000000000000000000000000000000000000000000000815260040161187890613958565b60405180910390fd5b6004600082815260200190815260200160002060006101000a81549073ffffffffffffffffffffffffffffffffffffffff02191690556001600360008573ffffffffffffffffffffffffffffffffffffffff1673ffffffffffffffffffffffffffffffffffffffff168152602001908152602001600020600082825403925050819055506001600360008473ffffffffffffffffffffffffffffffffffffffff1673ffffffffffffffffffffffffffffffffffffffff16815260200190815260200160002060008282540192505081905550816002600083815260200190815260200160002060006101000a81548173ffffffffffffffffffffffffffffffffffffffff021916908373ffffffffffffffffffffffffffffffffffffffff160217905550808273ffffffffffffffffffffffffffffffffffffffff168473ffffffffffffffffffffffffffffffffffffffff167fddf252ad1be2c89b69c2b068fc378daa952ba7f163c4a11628f55a4df523b3ef60405160405180910390a4611a0d8383836001612312565b505050565b60006002600083815260200190815260200160002060009054906101000a900473ffffffffffffffffffffffffffffffffffffffff169050919050565b611a576115c3565b73ffffffffffffffffffffffffffffffffffffffff16611a75610bb1565b73ffffffffffffffffffffffffffffffffffffffff1614611acb576040517f08c379a0000000000000000000000000000000000000000000000000000000008152600401611ac290613a56565b60405180910390fd5b565b6000600660009054906101000a900473ffffffffffffffffffffffffffffffffffffffff16905081600660006101000a81548173ffffffffffffffffffffffffffffffffffffffff021916908373ffffffffffffffffffffffffffffffffffffffff1602179055508173ffffffffffffffffffffffffffffffffffffffff168173ffffffffffffffffffffffffffffffffffffffff167f8be0079c531659141344cd1fd0a4f28419497f9722a3daafe3b4186f6b6457e060405160405180910390a35050565b8173ffffffffffffffffffffffffffffffffffffffff168373ffffffffffffffffffffffffffffffffffffffff1603611c01576040517f08c379a0000000000000000000000000000000000000000000000000000000008152600401611bf890613ac2565b60405180910390fd5b80600560008573ffffffffffffffffffffffffffffffffffffffff1673ffffffffffffffffffffffffffffffffffffffff16815260200190815260200160002060008473ffffffffffffffffffffffffffffffffffffffff1673ffffffffffffffffffffffffffffffffffffffff16815260200190815260200160002060006101000a81548160ff0219169083151502179055508173ffffffffffffffffffffffffffffffffffffffff168373ffffffffffffffffffffffffffffffffffffffff167f17307eab39ab6107e8899845ad3d59bd9653f200f220920489ca2b5937696c3183604051611cf2919061271e565b60405180910390a3505050565b611d0a848484611719565b611d1684848484612318565b611d55576040517f08c379a0000000000000000000000000000000000000000000000000000000008152600401611d4c90613b54565b60405180910390fd5b50505050565b606060405180602001604052806000815250905090565b606060006001611d818461249f565b01905060008167ffffffffffffffff811115611da057611d9f612acd565b5b6040519080825280601f01601f191660200182016040528015611dd25781602001600182028036833780820191505090505b509050600082602001820190505b600115611e35578080600190039150507f3031323334353637383961626364656600000000000000000000000000000000600a86061a8153600a8581611e2957611e28613b74565b5b04945060008503611de0575b819350505050919050565b600073ffffffffffffffffffffffffffffffffffffffff168273ffffffffffffffffffffffffffffffffffffffff1603611eaf576040517f08c379a0000000000000000000000000000000000000000000000000000000008152600401611ea690613bef565b60405180910390fd5b611eb8816121ab565b15611ef8576040517f08c379a0000000000000000000000000000000000000000000000000000000008152600401611eef90613c5b565b60405180910390fd5b611f066000838360016121ec565b611f0f816121ab565b15611f4f576040517f08c379a0000000000000000000000000000000000000000000000000000000008152600401611f4690613c5b565b60405180910390fd5b6001600360008473ffffffffffffffffffffffffffffffffffffffff1673ffffffffffffffffffffffffffffffffffffffff16815260200190815260200160002060008282540192505081905550816002600083815260200190815260200160002060006101000a81548173ffffffffffffffffffffffffffffffffffffffff021916908373ffffffffffffffffffffffffffffffffffffffff160217905550808273ffffffffffffffffffffffffffffffffffffffff16600073ffffffffffffffffffffffffffffffffffffffff167fddf252ad1be2c89b69c2b068fc378daa952ba7f163c4a11628f55a4df523b3ef60405160405180910390a4612059600083836001612312565b5050565b600061206882610a60565b90506120788160008460016121ec565b61208182610a60565b90506004600083815260200190815260200160002060006101000a81549073ffffffffffffffffffffffffffffffffffffffff02191690556001600360008373ffffffffffffffffffffffffffffffffffffffff1673ffffffffffffffffffffffffffffffffffffffff168152602001908152602001600020600082825403925050819055506002600083815260200190815260200160002060006101000a81549073ffffffffffffffffffffffffffffffffffffffff021916905581600073ffffffffffffffffffffffffffffffffffffffff168273ffffffffffffffffffffffffffffffffffffffff167fddf252ad1be2c89b69c2b068fc378daa952ba7f163c4a11628f55a4df523b3ef60405160405180910390a46121a7816000846001612312565b5050565b60008073ffffffffffffffffffffffffffffffffffffffff166121cd83611a12565b73ffffffffffffffffffffffffffffffffffffffff1614159050919050565b600181111561230c57600073ffffffffffffffffffffffffffffffffffffffff168473ffffffffffffffffffffffffffffffffffffffff16146122805780600360008673ffffffffffffffffffffffffffffffffffffffff1673ffffffffffffffffffffffffffffffffffffffff16815260200190815260200160002060008282546122789190613c7b565b925050819055505b600073ffffffffffffffffffffffffffffffffffffffff168373ffffffffffffffffffffffffffffffffffffffff161461230b5780600360008573ffffffffffffffffffffffffffffffffffffffff1673ffffffffffffffffffffffffffffffffffffffff16815260200190815260200160002060008282546123039190613820565b925050819055505b5b50505050565b50505050565b60006123398473ffffffffffffffffffffffffffffffffffffffff166125f2565b15612492578373ffffffffffffffffffffffffffffffffffffffff1663150b7a026123626115c3565b8786866040518563ffffffff1660e01b81526004016123849493929190613d04565b6020604051808303816000875af19250505080156123c057506040513d601f19601f820116820180604052508101906123bd9190613d65565b60015b612442573d80600081146123f0576040519150601f19603f3d011682016040523d82523d6000602084013e6123f5565b606091505b50600081510361243a576040517f08c379a000000000000000000000000000000000000000000000000000000000815260040161243190613b54565b60405180910390fd5b805181602001fd5b63150b7a0260e01b7bffffffffffffffffffffffffffffffffffffffffffffffffffffffff1916817bffffffffffffffffffffffffffffffffffffffffffffffffffffffff191614915050612497565b600190505b949350505050565b600080600090507a184f03e93ff9f4daa797ed6e38ed64bf6a1f01000000000000000083106124fd577a184f03e93ff9f4daa797ed6e38ed64bf6a1f01000000000000000083816124f3576124f2613b74565b5b0492506040810190505b6d04ee2d6d415b85acef8100000000831061253a576d04ee2d6d415b85acef810000000083816125305761252f613b74565b5b0492506020810190505b662386f26fc10000831061256957662386f26fc10000838161255f5761255e613b74565b5b0492506010810190505b6305f5e1008310612592576305f5e100838161258857612587613b74565b5b0492506008810190505b61271083106125b75761271083816125ad576125ac613b74565b5b0492506004810190505b606483106125da57606483816125d0576125cf613b74565b5b0492506002810190505b600a83106125e9576001810190505b80915050919050565b6000808273ffffffffffffffffffffffffffffffffffffffff163b119050919050565b6040518060e001604052806000815260200160008152602001600081526020016000815260200160608152602001600015158152602001600073ffffffffffffffffffffffffffffffffffffffff1681525090565b6000604051905090565b600080fd5b600080fd5b60007fffffffff0000000000000000000000000000000000000000000000000000000082169050919050565b6126b38161267e565b81146126be57600080fd5b50565b6000813590506126d0816126aa565b92915050565b6000602082840312156126ec576126eb612674565b5b60006126fa848285016126c1565b91505092915050565b60008115159050919050565b61271881612703565b82525050565b6000602082019050612733600083018461270f565b92915050565b6000819050919050565b61274c81612739565b811461275757600080fd5b50565b60008135905061276981612743565b92915050565b60006020828403121561278557612784612674565b5b60006127938482850161275a565b91505092915050565b600081519050919050565b600082825260208201905092915050565b60005b838110156127d65780820151818401526020810190506127bb565b60008484015250505050565b6000601f19601f8301169050919050565b60006127fe8261279c565b61280881856127a7565b93506128188185602086016127b8565b612821816127e2565b840191505092915050565b6000602082019050818103600083015261284681846127f3565b905092915050565b600073ffffffffffffffffffffffffffffffffffffffff82169050919050565b60006128798261284e565b9050919050565b6128898161286e565b82525050565b60006020820190506128a46000830184612880565b92915050565b6128b38161286e565b81146128be57600080fd5b50565b6000813590506128d0816128aa565b92915050565b600080604083850312156128ed576128ec612674565b5b60006128fb858286016128c1565b925050602061290c8582860161275a565b9150509250929050565b60008060006060848603121561292f5761292e612674565b5b600061293d868287016128c1565b935050602061294e868287016128c1565b925050604061295f8682870161275a565b9150509250925092565b61297281612739565b82525050565b60006129838261284e565b9050919050565b61299381612978565b82525050565b600060e0820190506129ae600083018a612969565b6129bb6020830189612969565b6129c86040830188612969565b6129d56060830187612969565b81810360808301526129e781866127f3565b90506129f660a083018561270f565b612a0360c083018461298a565b98975050505050505050565b600060208284031215612a2557612a24612674565b5b6000612a33848285016128c1565b91505092915050565b6000602082019050612a516000830184612969565b92915050565b612a6081612703565b8114612a6b57600080fd5b50565b600081359050612a7d81612a57565b92915050565b60008060408385031215612a9a57612a99612674565b5b6000612aa8858286016128c1565b9250506020612ab985828601612a6e565b9150509250929050565b600080fd5b600080fd5b7f4e487b7100000000000000000000000000000000000000000000000000000000600052604160045260246000fd5b612b05826127e2565b810181811067ffffffffffffffff82111715612b2457612b23612acd565b5b80604052505050565b6000612b3761266a565b9050612b438282612afc565b919050565b600067ffffffffffffffff821115612b6357612b62612acd565b5b612b6c826127e2565b9050602081019050919050565b82818337600083830152505050565b6000612b9b612b9684612b48565b612b2d565b905082815260208101848484011115612bb757612bb6612ac8565b5b612bc2848285612b79565b509392505050565b600082601f830112612bdf57612bde612ac3565b5b8135612bef848260208601612b88565b91505092915050565b60008060008060808587031215612c1257612c11612674565b5b6000612c20878288016128c1565b9450506020612c31878288016128c1565b9350506040612c428782880161275a565b925050606085013567ffffffffffffffff811115612c6357612c62612679565b5b612c6f87828801612bca565b91505092959194509250565b600067ffffffffffffffff821115612c9657612c95612acd565b5b612c9f826127e2565b9050602081019050919050565b6000612cbf612cba84612c7b565b612b2d565b905082815260208101848484011115612cdb57612cda612ac8565b5b612ce6848285612b79565b509392505050565b600082601f830112612d0357612d02612ac3565b5b8135612d13848260208601612cac565b91505092915050565b600080600080600060a08688031215612d3857612d37612674565b5b6000612d468882890161275a565b9550506020612d578882890161275a565b9450506040612d688882890161275a565b935050606086013567ffffffffffffffff811115612d8957612d88612679565b5b612d9588828901612cee565b9250506080612da688828901612a6e565b9150509295509295909350565b60008060408385031215612dca57612dc9612674565b5b6000612dd8858286016128c1565b9250506020612de9858286016128c1565b9150509250929050565b7f43616e6e6f742065787069726520616e206f7074696f6e20746861742069732060008201527f7374696c6c2065786563757461626c6500000000000000000000000000000000602082015250565b6000612e4f6030836127a7565b9150612e5a82612df3565b604082019050919050565b60006020820190508181036000830152612e7e81612e42565b9050919050565b7f4e487b7100000000000000000000000000000000000000000000000000000000600052602260045260246000fd5b60006002820490506001821680612ecc57607f821691505b602082108103612edf57612ede612e85565b5b50919050565b7f4552433732313a20617070726f76616c20746f2063757272656e74206f776e6560008201527f7200000000000000000000000000000000000000000000000000000000000000602082015250565b6000612f416021836127a7565b9150612f4c82612ee5565b604082019050919050565b60006020820190508181036000830152612f7081612f34565b9050919050565b7f4552433732313a20617070726f76652063616c6c6572206973206e6f7420746f60008201527f6b656e206f776e6572206f7220617070726f76656420666f7220616c6c000000602082015250565b6000612fd3603d836127a7565b9150612fde82612f77565b604082019050919050565b6000602082019050818103600083015261300281612fc6565b9050919050565b7f4552433732313a2063616c6c6572206973206e6f7420746f6b656e206f776e6560008201527f72206f7220617070726f76656400000000000000000000000000000000000000602082015250565b6000613065602d836127a7565b915061307082613009565b604082019050919050565b6000602082019050818103600083015261309481613058565b9050919050565b7f4552433732313a20696e76616c696420746f6b656e2049440000000000000000600082015250565b60006130d16018836127a7565b91506130dc8261309b565b602082019050919050565b60006020820190508181036000830152613100816130c4565b9050919050565b7f4552433732313a2061646472657373207a65726f206973206e6f74206120766160008201527f6c6964206f776e65720000000000000000000000000000000000000000000000602082015250565b60006131636029836127a7565b915061316e82613107565b604082019050919050565b6000602082019050818103600083015261319281613156565b9050919050565b7f55736572206d757374206f776e20746865204e465420746f206578657263697360008201527f6520746865206f7074696f6e0000000000000000000000000000000000000000602082015250565b60006131f5602c836127a7565b915061320082613199565b604082019050919050565b60006020820190508181036000830152613224816131e8565b9050919050565b7f74686973206973206e6f7420612063616c6c206f7074696f6e00000000000000600082015250565b60006132616019836127a7565b915061326c8261322b565b602082019050919050565b6000602082019050818103600083015261329081613254565b9050919050565b7f4f7074696f6e206973206e6f7420696e20746865206578657263697361626c6560008201527f2077696e646f7700000000000000000000000000000000000000000000000000602082015250565b60006132f36027836127a7565b91506132fe82613297565b604082019050919050565b60006020820190508181036000830152613322816132e6565b9050919050565b60008151905061333881612743565b92915050565b60006020828403121561335457613353612674565b5b600061336284828501613329565b91505092915050565b7f4275796572206d75737420686176652073756666696369656e7420555344432060008201527f746f2065786572636973652061742074686520737472696b6520707269636500602082015250565b60006133c7603f836127a7565b91506133d28261336b565b604082019050919050565b600060208201905081810360008301526133f6816133ba565b9050919050565b6000819050919050565b600061342261341d6134188461284e565b6133fd565b61284e565b9050919050565b600061343482613407565b9050919050565b600061344682613429565b9050919050565b6134568161343b565b82525050565b60006060820190506134716000830186612880565b61347e602083018561344d565b61348b6040830184612969565b949350505050565b6000815190506134a281612a57565b92915050565b6000602082840312156134be576134bd612674565b5b60006134cc84828501613493565b91505092915050565b600081905092915050565b60006134eb8261279c565b6134f581856134d5565b93506135058185602086016127b8565b80840191505092915050565b600061351d82856134e0565b915061352982846134e0565b91508190509392505050565b7f4e487b7100000000000000000000000000000000000000000000000000000000600052601160045260246000fd5b600061356f82612739565b91507fffffffffffffffffffffffffffffffffffffffffffffffffffffffffffffffff82036135a1576135a0613535565b5b600182019050919050565b60008190508160005260206000209050919050565b60006020601f8301049050919050565b600082821b905092915050565b60006008830261360e7fffffffffffffffffffffffffffffffffffffffffffffffffffffffffffffffff826135d1565b61361886836135d1565b95508019841693508086168417925050509392505050565b600061364b61364661364184612739565b6133fd565b612739565b9050919050565b6000819050919050565b61366583613630565b61367961367182613652565b8484546135de565b825550505050565b600090565b61368e613681565b61369981848461365c565b505050565b5b818110156136bd576136b2600082613686565b60018101905061369f565b5050565b601f821115613702576136d3816135ac565b6136dc846135c1565b810160208510156136eb578190505b6136ff6136f7856135c1565b83018261369e565b50505b505050565b600082821c905092915050565b600061372560001984600802613707565b1980831691505092915050565b600061373e8383613714565b9150826002028217905092915050565b6137578261279c565b67ffffffffffffffff8111156137705761376f612acd565b5b61377a8254612eb4565b6137858282856136c1565b600060209050601f8311600181146137b857600084156137a6578287015190505b6137b08582613732565b865550613818565b601f1984166137c6866135ac565b60005b828110156137ee578489015182556001820191506020850194506020810190506137c9565b8683101561380b5784890151613807601f891682613714565b8355505b6001600288020188555050505b505050505050565b600061382b82612739565b915061383683612739565b925082820190508082111561384e5761384d613535565b5b92915050565b7f4f776e61626c653a206e6577206f776e657220697320746865207a65726f206160008201527f6464726573730000000000000000000000000000000000000000000000000000602082015250565b60006138b06026836127a7565b91506138bb82613854565b604082019050919050565b600060208201905081810360008301526138df816138a3565b9050919050565b7f4552433732313a207472616e736665722066726f6d20696e636f72726563742060008201527f6f776e6572000000000000000000000000000000000000000000000000000000602082015250565b60006139426025836127a7565b915061394d826138e6565b604082019050919050565b6000602082019050818103600083015261397181613935565b9050919050565b7f4552433732313a207472616e7366657220746f20746865207a65726f2061646460008201527f7265737300000000000000000000000000000000000000000000000000000000602082015250565b60006139d46024836127a7565b91506139df82613978565b604082019050919050565b60006020820190508181036000830152613a03816139c7565b9050919050565b7f4f776e61626c653a2063616c6c6572206973206e6f7420746865206f776e6572600082015250565b6000613a406020836127a7565b9150613a4b82613a0a565b602082019050919050565b60006020820190508181036000830152613a6f81613a33565b9050919050565b7f4552433732313a20617070726f766520746f2063616c6c657200000000000000600082015250565b6000613aac6019836127a7565b9150613ab782613a76565b602082019050919050565b60006020820190508181036000830152613adb81613a9f565b9050919050565b7f4552433732313a207472616e7366657220746f206e6f6e20455243373231526560008201527f63656976657220696d706c656d656e7465720000000000000000000000000000602082015250565b6000613b3e6032836127a7565b9150613b4982613ae2565b604082019050919050565b60006020820190508181036000830152613b6d81613b31565b9050919050565b7f4e487b7100000000000000000000000000000000000000000000000000000000600052601260045260246000fd5b7f4552433732313a206d696e7420746f20746865207a65726f2061646472657373600082015250565b6000613bd96020836127a7565b9150613be482613ba3565b602082019050919050565b60006020820190508181036000830152613c0881613bcc565b9050919050565b7f4552433732313a20746f6b656e20616c7265616479206d696e74656400000000600082015250565b6000613c45601c836127a7565b9150613c5082613c0f565b602082019050919050565b60006020820190508181036000830152613c7481613c38565b9050919050565b6000613c8682612739565b9150613c9183612739565b9250828203905081811115613ca957613ca8613535565b5b92915050565b600081519050919050565b600082825260208201905092915050565b6000613cd682613caf565b613ce08185613cba565b9350613cf08185602086016127b8565b613cf9816127e2565b840191505092915050565b6000608082019050613d196000830187612880565b613d266020830186612880565b613d336040830185612969565b8181036060830152613d458184613ccb565b905095945050505050565b600081519050613d5f816126aa565b92915050565b600060208284031215613d7b57613d7a612674565b5b6000613d8984828501613d50565b9150509291505056fea2646970667358221220544d68a680a8364dd47afa56174571cadc315d725064164f13cef57463b1ffa964736f6c63430008110033",
  "linkReferences": {},
  "deployedLinkReferences": {}
}