{
  "_format": "hh-sol-artifact-1",
  "contractName": "OptionToken",
  "sourceName": "contracts/OptionToken.sol",
  "abi": [
    {
      "inputs": [],
      "stateMutability": "nonpayable",
      "type": "constructor"
    },
    {
      "anonymous": false,
      "inputs": [
        {
          "indexed": true,
          "internalType": "address",
          "name": "owner",
          "type": "address"
        },
        {
          "indexed": true,
          "internalType": "address",
          "name": "approved",
          "type": "address"
        },
        {
          "indexed": true,
          "internalType": "uint256",
          "name": "tokenId",
          "type": "uint256"
        }
      ],
      "name": "Approval",
      "type": "event"
    },
    {
      "anonymous": false,
      "inputs": [
        {
          "indexed": true,
          "internalType": "address",
          "name": "owner",
          "type": "address"
        },
        {
          "indexed": true,
          "internalType": "address",
          "name": "operator",
          "type": "address"
        },
        {
          "indexed": false,
          "internalType": "bool",
          "name": "approved",
          "type": "bool"
        }
      ],
      "name": "ApprovalForAll",
      "type": "event"
    },
    {
      "anonymous": false,
      "inputs": [
        {
          "indexed": true,
          "internalType": "address",
          "name": "previousOwner",
          "type": "address"
        },
        {
          "indexed": true,
          "internalType": "address",
          "name": "newOwner",
          "type": "address"
        }
      ],
      "name": "OwnershipTransferred",
      "type": "event"
    },
    {
      "anonymous": false,
      "inputs": [
        {
          "indexed": true,
          "internalType": "address",
          "name": "from",
          "type": "address"
        },
        {
          "indexed": true,
          "internalType": "address",
          "name": "to",
          "type": "address"
        },
        {
          "indexed": true,
          "internalType": "uint256",
          "name": "tokenId",
          "type": "uint256"
        }
      ],
      "name": "Transfer",
      "type": "event"
    },
    {
      "inputs": [
        {
          "internalType": "address",
          "name": "to",
          "type": "address"
        },
        {
          "internalType": "uint256",
          "name": "tokenId",
          "type": "uint256"
        }
      ],
      "name": "approve",
      "outputs": [],
      "stateMutability": "nonpayable",
      "type": "function"
    },
    {
      "inputs": [
        {
          "internalType": "address",
          "name": "owner",
          "type": "address"
        }
      ],
      "name": "balanceOf",
      "outputs": [
        {
          "internalType": "uint256",
          "name": "",
          "type": "uint256"
        }
      ],
      "stateMutability": "view",
      "type": "function"
    },
    {
      "inputs": [
        {
          "internalType": "uint256",
          "name": "optionId",
          "type": "uint256"
        }
      ],
      "name": "cancelOption",
      "outputs": [
        {
          "internalType": "bool",
          "name": "",
          "type": "bool"
        }
      ],
      "stateMutability": "nonpayable",
      "type": "function"
    },
    {
      "inputs": [
        {
          "internalType": "uint256",
          "name": "strikePrice",
          "type": "uint256"
        },
        {
          "internalType": "uint256",
          "name": "expirationDate",
          "type": "uint256"
        },
        {
          "internalType": "uint256",
          "name": "underlyingValue",
          "type": "uint256"
        },
        {
          "internalType": "string",
          "name": "assetSymbol",
          "type": "string"
        },
        {
          "internalType": "bool",
          "name": "isCall",
          "type": "bool"
        }
      ],
      "name": "createOption",
      "outputs": [],
      "stateMutability": "payable",
      "type": "function"
    },
    {
      "inputs": [
        {
          "internalType": "uint256",
          "name": "_optionId",
          "type": "uint256"
        }
      ],
      "name": "exerciseCallOption",
      "outputs": [],
      "stateMutability": "nonpayable",
      "type": "function"
    },
    {
      "inputs": [
        {
          "internalType": "uint256",
          "name": "optionId",
          "type": "uint256"
        }
      ],
      "name": "expireOption",
      "outputs": [],
      "stateMutability": "nonpayable",
      "type": "function"
    },
    {
      "inputs": [
        {
          "internalType": "uint256",
          "name": "tokenId",
          "type": "uint256"
        }
      ],
      "name": "getApproved",
      "outputs": [
        {
          "internalType": "address",
          "name": "",
          "type": "address"
        }
      ],
      "stateMutability": "view",
      "type": "function"
    },
    {
      "inputs": [
        {
          "internalType": "address",
          "name": "owner",
          "type": "address"
        },
        {
          "internalType": "address",
          "name": "operator",
          "type": "address"
        }
      ],
      "name": "isApprovedForAll",
      "outputs": [
        {
          "internalType": "bool",
          "name": "",
          "type": "bool"
        }
      ],
      "stateMutability": "view",
      "type": "function"
    },
    {
      "inputs": [],
      "name": "name",
      "outputs": [
        {
          "internalType": "string",
          "name": "",
          "type": "string"
        }
      ],
      "stateMutability": "view",
      "type": "function"
    },
    {
      "inputs": [
        {
          "internalType": "uint256",
          "name": "",
          "type": "uint256"
        }
      ],
      "name": "options",
      "outputs": [
        {
          "internalType": "uint256",
          "name": "strikePrice",
          "type": "uint256"
        },
        {
          "internalType": "uint256",
          "name": "expirationDate",
          "type": "uint256"
        },
        {
          "internalType": "uint256",
          "name": "underlyingValue",
          "type": "uint256"
        },
        {
          "internalType": "uint256",
          "name": "optionId",
          "type": "uint256"
        },
        {
          "internalType": "string",
          "name": "assetSymbol",
          "type": "string"
        },
        {
          "internalType": "bool",
          "name": "isCall",
          "type": "bool"
        },
        {
          "internalType": "address payable",
          "name": "counterpartyAddress",
          "type": "address"
        }
      ],
      "stateMutability": "view",
      "type": "function"
    },
    {
      "inputs": [],
      "name": "owner",
      "outputs": [
        {
          "internalType": "address",
          "name": "",
          "type": "address"
        }
      ],
      "stateMutability": "view",
      "type": "function"
    },
    {
      "inputs": [
        {
          "internalType": "uint256",
          "name": "tokenId",
          "type": "uint256"
        }
      ],
      "name": "ownerOf",
      "outputs": [
        {
          "internalType": "address",
          "name": "",
          "type": "address"
        }
      ],
      "stateMutability": "view",
      "type": "function"
    },
    {
      "inputs": [],
      "name": "renounceOwnership",
      "outputs": [],
      "stateMutability": "nonpayable",
      "type": "function"
    },
    {
      "inputs": [
        {
          "internalType": "address",
          "name": "from",
          "type": "address"
        },
        {
          "internalType": "address",
          "name": "to",
          "type": "address"
        },
        {
          "internalType": "uint256",
          "name": "tokenId",
          "type": "uint256"
        }
      ],
      "name": "safeTransferFrom",
      "outputs": [],
      "stateMutability": "nonpayable",
      "type": "function"
    },
    {
      "inputs": [
        {
          "internalType": "address",
          "name": "from",
          "type": "address"
        },
        {
          "internalType": "address",
          "name": "to",
          "type": "address"
        },
        {
          "internalType": "uint256",
          "name": "tokenId",
          "type": "uint256"
        },
        {
          "internalType": "bytes",
          "name": "data",
          "type": "bytes"
        }
      ],
      "name": "safeTransferFrom",
      "outputs": [],
      "stateMutability": "nonpayable",
      "type": "function"
    },
    {
      "inputs": [
        {
          "internalType": "address",
          "name": "operator",
          "type": "address"
        },
        {
          "internalType": "bool",
          "name": "approved",
          "type": "bool"
        }
      ],
      "name": "setApprovalForAll",
      "outputs": [],
      "stateMutability": "nonpayable",
      "type": "function"
    },
    {
      "inputs": [
        {
          "internalType": "bytes4",
          "name": "interfaceId",
          "type": "bytes4"
        }
      ],
      "name": "supportsInterface",
      "outputs": [
        {
          "internalType": "bool",
          "name": "",
          "type": "bool"
        }
      ],
      "stateMutability": "view",
      "type": "function"
    },
    {
      "inputs": [],
      "name": "symbol",
      "outputs": [
        {
          "internalType": "string",
          "name": "",
          "type": "string"
        }
      ],
      "stateMutability": "view",
      "type": "function"
    },
    {
      "inputs": [
        {
          "internalType": "uint256",
          "name": "tokenId",
          "type": "uint256"
        }
      ],
      "name": "tokenURI",
      "outputs": [
        {
          "internalType": "string",
          "name": "",
          "type": "string"
        }
      ],
      "stateMutability": "view",
      "type": "function"
    },
    {
      "inputs": [
        {
          "internalType": "address",
          "name": "from",
          "type": "address"
        },
        {
          "internalType": "address",
          "name": "to",
          "type": "address"
        },
        {
          "internalType": "uint256",
          "name": "tokenId",
          "type": "uint256"
        }
      ],
      "name": "transferFrom",
      "outputs": [],
      "stateMutability": "nonpayable",
      "type": "function"
    },
    {
      "inputs": [
        {
          "internalType": "address",
          "name": "newOwner",
          "type": "address"
        }
      ],
      "name": "transferOwnership",
      "outputs": [],
      "stateMutability": "nonpayable",
      "type": "function"
    }
  ],
  "bytecode": "0x60806040523480156200001157600080fd5b506040518060400160405280600681526020017f4f7074696f6e00000000000000000000000000000000000000000000000000008152506040518060400160405280600381526020017f4f5054000000000000000000000000000000000000000000000000000000000081525081600090816200008f91906200046d565b508060019081620000a191906200046d565b505050620000c4620000b86200012560201b60201c565b6200012d60201b60201c565b60007307865c6e87b9f70255377e024ace6630c1eaa37f905080600a60006101000a81548173ffffffffffffffffffffffffffffffffffffffff021916908373ffffffffffffffffffffffffffffffffffffffff1602179055505062000554565b600033905090565b6000600660009054906101000a900473ffffffffffffffffffffffffffffffffffffffff16905081600660006101000a81548173ffffffffffffffffffffffffffffffffffffffff021916908373ffffffffffffffffffffffffffffffffffffffff1602179055508173ffffffffffffffffffffffffffffffffffffffff168173ffffffffffffffffffffffffffffffffffffffff167f8be0079c531659141344cd1fd0a4f28419497f9722a3daafe3b4186f6b6457e060405160405180910390a35050565b600081519050919050565b7f4e487b7100000000000000000000000000000000000000000000000000000000600052604160045260246000fd5b7f4e487b7100000000000000000000000000000000000000000000000000000000600052602260045260246000fd5b600060028204905060018216806200027557607f821691505b6020821081036200028b576200028a6200022d565b5b50919050565b60008190508160005260206000209050919050565b60006020601f8301049050919050565b600082821b905092915050565b600060088302620002f57fffffffffffffffffffffffffffffffffffffffffffffffffffffffffffffffff82620002b6565b620003018683620002b6565b95508019841693508086168417925050509392505050565b6000819050919050565b6000819050919050565b60006200034e62000348620003428462000319565b62000323565b62000319565b9050919050565b6000819050919050565b6200036a836200032d565b62000382620003798262000355565b848454620002c3565b825550505050565b600090565b620003996200038a565b620003a68184846200035f565b505050565b5b81811015620003ce57620003c26000826200038f565b600181019050620003ac565b5050565b601f8211156200041d57620003e78162000291565b620003f284620002a6565b8101602085101562000402578190505b6200041a6200041185620002a6565b830182620003ab565b50505b505050565b600082821c905092915050565b6000620004426000198460080262000422565b1980831691505092915050565b60006200045d83836200042f565b9150826002028217905092915050565b6200047882620001f3565b67ffffffffffffffff811115620004945762000493620001fe565b5b620004a082546200025c565b620004ad828285620003d2565b600060209050601f831160018114620004e55760008415620004d0578287015190505b620004dc85826200044f565b8655506200054c565b601f198416620004f58662000291565b60005b828110156200051f57848901518255600182019150602085019450602081019050620004f8565b868310156200053f57848901516200053b601f8916826200042f565b8355505b6001600288020188555050505b505050505050565b613d7280620005646000396000f3fe60806040526004361061012a5760003560e01c806370a08231116100ab578063a88e76f41161006f578063a88e76f4146103e7578063b88d4fde14610410578063c87b56dd14610439578063de6bf63514610476578063e985e9c5146104b3578063f2fde38b146104f05761012a565b806370a0823114610314578063715018a6146103515780638da5cb5b1461036857806395d89b4114610393578063a22cb465146103be5761012a565b806323b872dd116100f257806323b872dd14610226578063409e22051461024f57806342842e0e146102925780634e00b002146102bb5780636352211e146102d75761012a565b806301ffc9a71461012f57806302f126e81461016c57806306fdde0314610195578063081812fc146101c0578063095ea7b3146101fd575b600080fd5b34801561013b57600080fd5b50610156600480360381019061015191906126c2565b610519565b604051610163919061270a565b60405180910390f35b34801561017857600080fd5b50610193600480360381019061018e919061275b565b6105fb565b005b3480156101a157600080fd5b506101aa6106e6565b6040516101b79190612818565b60405180910390f35b3480156101cc57600080fd5b506101e760048036038101906101e2919061275b565b610778565b6040516101f4919061287b565b60405180910390f35b34801561020957600080fd5b50610224600480360381019061021f91906128c2565b6107be565b005b34801561023257600080fd5b5061024d60048036038101906102489190612902565b6108d5565b005b34801561025b57600080fd5b506102766004803603810190610271919061275b565b610935565b6040516102899796959493929190612985565b60405180910390f35b34801561029e57600080fd5b506102b960048036038101906102b49190612902565b610a2c565b005b6102d560048036038101906102d09190612b5c565b610a4c565b005b3480156102e357600080fd5b506102fe60048036038101906102f9919061275b565b610bec565b60405161030b919061287b565b60405180910390f35b34801561032057600080fd5b5061033b60048036038101906103369190612bf3565b610c72565b6040516103489190612c20565b60405180910390f35b34801561035d57600080fd5b50610366610d29565b005b34801561037457600080fd5b5061037d610d3d565b60405161038a919061287b565b60405180910390f35b34801561039f57600080fd5b506103a8610d67565b6040516103b59190612818565b60405180910390f35b3480156103ca57600080fd5b506103e560048036038101906103e09190612c3b565b610df9565b005b3480156103f357600080fd5b5061040e6004803603810190610409919061275b565b610e0f565b005b34801561041c57600080fd5b5061043760048036038101906104329190612d1c565b611109565b005b34801561044557600080fd5b50610460600480360381019061045b919061275b565b61116b565b60405161046d9190612818565b60405180910390f35b34801561048257600080fd5b5061049d6004803603810190610498919061275b565b6111d3565b6040516104aa919061270a565b60405180910390f35b3480156104bf57600080fd5b506104da60048036038101906104d59190612d9f565b61126d565b6040516104e7919061270a565b60405180910390f35b3480156104fc57600080fd5b5061051760048036038101906105129190612bf3565b611301565b005b60007f80ac58cd000000000000000000000000000000000000000000000000000000007bffffffffffffffffffffffffffffffffffffffffffffffffffffffff1916827bffffffffffffffffffffffffffffffffffffffffffffffffffffffff191614806105e457507f5b5e139f000000000000000000000000000000000000000000000000000000007bffffffffffffffffffffffffffffffffffffffffffffffffffffffff1916827bffffffffffffffffffffffffffffffffffffffffffffffffffffffff1916145b806105f457506105f382611384565b5b9050919050565b803373ffffffffffffffffffffffffffffffffffffffff1661061c826113ee565b60c0015173ffffffffffffffffffffffffffffffffffffffff161461064057600080fd5b600061064b836113ee565b905061065681611546565b15610696576040517f08c379a000000000000000000000000000000000000000000000000000000000815260040161068d90612e51565b60405180910390fd5b3373ffffffffffffffffffffffffffffffffffffffff166108fc82604001519081150290604051600060405180830381858888f193505050501580156106e0573d6000803e3d6000fd5b50505050565b6060600080546106f590612ea0565b80601f016020809104026020016040519081016040528092919081815260200182805461072190612ea0565b801561076e5780601f106107435761010080835404028352916020019161076e565b820191906000526020600020905b81548152906001019060200180831161075157829003601f168201915b5050505050905090565b600061078382611564565b6004600083815260200190815260200160002060009054906101000a900473ffffffffffffffffffffffffffffffffffffffff169050919050565b60006107c982610bec565b90508073ffffffffffffffffffffffffffffffffffffffff168373ffffffffffffffffffffffffffffffffffffffff1603610839576040517f08c379a000000000000000000000000000000000000000000000000000000000815260040161083090612f43565b60405180910390fd5b8073ffffffffffffffffffffffffffffffffffffffff166108586115af565b73ffffffffffffffffffffffffffffffffffffffff1614806108875750610886816108816115af565b61126d565b5b6108c6576040517f08c379a00000000000000000000000000000000000000000000000000000000081526004016108bd90612fd5565b60405180910390fd5b6108d083836115b7565b505050565b6108e66108e06115af565b82611670565b610925576040517f08c379a000000000000000000000000000000000000000000000000000000000815260040161091c90613067565b60405180910390fd5b610930838383611705565b505050565b600760205280600052604060002060009150905080600001549080600101549080600201549080600301549080600401805461097090612ea0565b80601f016020809104026020016040519081016040528092919081815260200182805461099c90612ea0565b80156109e95780601f106109be576101008083540402835291602001916109e9565b820191906000526020600020905b8154815290600101906020018083116109cc57829003601f168201915b5050505050908060050160009054906101000a900460ff16908060050160019054906101000a900473ffffffffffffffffffffffffffffffffffffffff16905087565b610a4783838360405180602001604052806000815250611109565b505050565b82341015610a5957600080fd5b6000600854905060086000815480929190610a73906130b6565b9190505550610a8233826119fe565b60006040518060e0016040528088815260200187815260200186815260200183815260200185815260200184151581526020013373ffffffffffffffffffffffffffffffffffffffff1681525090508060076000848152602001908152602001600020600082015181600001556020820151816001015560408201518160020155606082015181600301556080820151816004019081610b2291906132aa565b5060a08201518160050160006101000a81548160ff02191690831515021790555060c08201518160050160016101000a81548173ffffffffffffffffffffffffffffffffffffffff021916908373ffffffffffffffffffffffffffffffffffffffff16021790555090505034600960003373ffffffffffffffffffffffffffffffffffffffff1673ffffffffffffffffffffffffffffffffffffffff1681526020019081526020016000206000828254610bdc919061337c565b9250508190555050505050505050565b600080610bf883611c1b565b9050600073ffffffffffffffffffffffffffffffffffffffff168173ffffffffffffffffffffffffffffffffffffffff1603610c69576040517f08c379a0000000000000000000000000000000000000000000000000000000008152600401610c60906133fc565b60405180910390fd5b80915050919050565b60008073ffffffffffffffffffffffffffffffffffffffff168273ffffffffffffffffffffffffffffffffffffffff1603610ce2576040517f08c379a0000000000000000000000000000000000000000000000000000000008152600401610cd99061348e565b60405180910390fd5b600360008373ffffffffffffffffffffffffffffffffffffffff1673ffffffffffffffffffffffffffffffffffffffff168152602001908152602001600020549050919050565b610d31611c58565b610d3b6000611cd6565b565b6000600660009054906101000a900473ffffffffffffffffffffffffffffffffffffffff16905090565b606060018054610d7690612ea0565b80601f0160208091040260200160405190810160405280929190818152602001828054610da290612ea0565b8015610def5780601f10610dc457610100808354040283529160200191610def565b820191906000526020600020905b815481529060010190602001808311610dd257829003601f168201915b5050505050905090565b610e0b610e046115af565b8383611d9c565b5050565b6000610e1a826113ee565b9050610e2582610bec565b73ffffffffffffffffffffffffffffffffffffffff163373ffffffffffffffffffffffffffffffffffffffff1614610e92576040517f08c379a0000000000000000000000000000000000000000000000000000000008152600401610e8990613520565b60405180910390fd5b600115158160a00151151514610edd576040517f08c379a0000000000000000000000000000000000000000000000000000000008152600401610ed49061358c565b60405180910390fd5b42620151808260200151610ef1919061337c565b11610f31576040517f08c379a0000000000000000000000000000000000000000000000000000000008152600401610f289061361e565b60405180910390fd5b8060000151600a60009054906101000a900473ffffffffffffffffffffffffffffffffffffffff1673ffffffffffffffffffffffffffffffffffffffff166370a08231336040518263ffffffff1660e01b8152600401610f91919061287b565b602060405180830381865afa158015610fae573d6000803e3d6000fd5b505050506040513d601f19601f82011682018060405250810190610fd29190613653565b1015611013576040517f08c379a000000000000000000000000000000000000000000000000000000000815260040161100a906136f2565b60405180910390fd5b600a60009054906101000a900473ffffffffffffffffffffffffffffffffffffffff1673ffffffffffffffffffffffffffffffffffffffff166323b872dd338360c0015184600001516040518463ffffffff1660e01b815260040161107a93929190613767565b600060405180830381600087803b15801561109457600080fd5b505af11580156110a8573d6000803e3d6000fd5b505050508060c0015173ffffffffffffffffffffffffffffffffffffffff166108fc82604001519081150290604051600060405180830381858888f193505050501580156110fa573d6000803e3d6000fd5b50611104826111d3565b505050565b61111a6111146115af565b83611670565b611159576040517f08c379a000000000000000000000000000000000000000000000000000000000815260040161115090613067565b60405180910390fd5b61116584848484611f08565b50505050565b606061117682611564565b6000611180611f64565b905060008151116111a057604051806020016040528060008152506111cb565b806111aa84611f7b565b6040516020016111bb9291906137da565b6040516020818303038152906040525b915050919050565b6000813373ffffffffffffffffffffffffffffffffffffffff166111f6826113ee565b60c0015173ffffffffffffffffffffffffffffffffffffffff161461121a57600080fd5b3373ffffffffffffffffffffffffffffffffffffffff1661123a84610bec565b73ffffffffffffffffffffffffffffffffffffffff161461125a57600080fd5b61126383612049565b6001915050919050565b6000600560008473ffffffffffffffffffffffffffffffffffffffff1673ffffffffffffffffffffffffffffffffffffffff16815260200190815260200160002060008373ffffffffffffffffffffffffffffffffffffffff1673ffffffffffffffffffffffffffffffffffffffff16815260200190815260200160002060009054906101000a900460ff16905092915050565b611309611c58565b600073ffffffffffffffffffffffffffffffffffffffff168173ffffffffffffffffffffffffffffffffffffffff1603611378576040517f08c379a000000000000000000000000000000000000000000000000000000000815260040161136f90613870565b60405180910390fd5b61138181611cd6565b50565b60007f01ffc9a7000000000000000000000000000000000000000000000000000000007bffffffffffffffffffffffffffffffffffffffffffffffffffffffff1916827bffffffffffffffffffffffffffffffffffffffffffffffffffffffff1916149050919050565b6113f6612601565b600760008381526020019081526020016000206040518060e00160405290816000820154815260200160018201548152602001600282015481526020016003820154815260200160048201805461144c90612ea0565b80601f016020809104026020016040519081016040528092919081815260200182805461147890612ea0565b80156114c55780601f1061149a576101008083540402835291602001916114c5565b820191906000526020600020905b8154815290600101906020018083116114a857829003601f168201915b505050505081526020016005820160009054906101000a900460ff161515151581526020016005820160019054906101000a900473ffffffffffffffffffffffffffffffffffffffff1673ffffffffffffffffffffffffffffffffffffffff1673ffffffffffffffffffffffffffffffffffffffff16815250509050919050565b60004262015180836020015161155c919061337c565b119050919050565b61156d81612197565b6115ac576040517f08c379a00000000000000000000000000000000000000000000000000000000081526004016115a3906133fc565b60405180910390fd5b50565b600033905090565b816004600083815260200190815260200160002060006101000a81548173ffffffffffffffffffffffffffffffffffffffff021916908373ffffffffffffffffffffffffffffffffffffffff160217905550808273ffffffffffffffffffffffffffffffffffffffff1661162a83610bec565b73ffffffffffffffffffffffffffffffffffffffff167f8c5be1e5ebec7d5bd14f71427d1e84f3dd0314c0f7b2291e5b200ac8c7c3b92560405160405180910390a45050565b60008061167c83610bec565b90508073ffffffffffffffffffffffffffffffffffffffff168473ffffffffffffffffffffffffffffffffffffffff1614806116be57506116bd818561126d565b5b806116fc57508373ffffffffffffffffffffffffffffffffffffffff166116e484610778565b73ffffffffffffffffffffffffffffffffffffffff16145b91505092915050565b8273ffffffffffffffffffffffffffffffffffffffff1661172582610bec565b73ffffffffffffffffffffffffffffffffffffffff161461177b576040517f08c379a000000000000000000000000000000000000000000000000000000000815260040161177290613902565b60405180910390fd5b600073ffffffffffffffffffffffffffffffffffffffff168273ffffffffffffffffffffffffffffffffffffffff16036117ea576040517f08c379a00000000000000000000000000000000000000000000000000000000081526004016117e190613994565b60405180910390fd5b6117f783838360016121d8565b8273ffffffffffffffffffffffffffffffffffffffff1661181782610bec565b73ffffffffffffffffffffffffffffffffffffffff161461186d576040517f08c379a000000000000000000000000000000000000000000000000000000000815260040161186490613902565b60405180910390fd5b6004600082815260200190815260200160002060006101000a81549073ffffffffffffffffffffffffffffffffffffffff02191690556001600360008573ffffffffffffffffffffffffffffffffffffffff1673ffffffffffffffffffffffffffffffffffffffff168152602001908152602001600020600082825403925050819055506001600360008473ffffffffffffffffffffffffffffffffffffffff1673ffffffffffffffffffffffffffffffffffffffff16815260200190815260200160002060008282540192505081905550816002600083815260200190815260200160002060006101000a81548173ffffffffffffffffffffffffffffffffffffffff021916908373ffffffffffffffffffffffffffffffffffffffff160217905550808273ffffffffffffffffffffffffffffffffffffffff168473ffffffffffffffffffffffffffffffffffffffff167fddf252ad1be2c89b69c2b068fc378daa952ba7f163c4a11628f55a4df523b3ef60405160405180910390a46119f983838360016122fe565b505050565b600073ffffffffffffffffffffffffffffffffffffffff168273ffffffffffffffffffffffffffffffffffffffff1603611a6d576040517f08c379a0000000000000000000000000000000000000000000000000000000008152600401611a6490613a00565b60405180910390fd5b611a7681612197565b15611ab6576040517f08c379a0000000000000000000000000000000000000000000000000000000008152600401611aad90613a6c565b60405180910390fd5b611ac46000838360016121d8565b611acd81612197565b15611b0d576040517f08c379a0000000000000000000000000000000000000000000000000000000008152600401611b0490613a6c565b60405180910390fd5b6001600360008473ffffffffffffffffffffffffffffffffffffffff1673ffffffffffffffffffffffffffffffffffffffff16815260200190815260200160002060008282540192505081905550816002600083815260200190815260200160002060006101000a81548173ffffffffffffffffffffffffffffffffffffffff021916908373ffffffffffffffffffffffffffffffffffffffff160217905550808273ffffffffffffffffffffffffffffffffffffffff16600073ffffffffffffffffffffffffffffffffffffffff167fddf252ad1be2c89b69c2b068fc378daa952ba7f163c4a11628f55a4df523b3ef60405160405180910390a4611c176000838360016122fe565b5050565b60006002600083815260200190815260200160002060009054906101000a900473ffffffffffffffffffffffffffffffffffffffff169050919050565b611c606115af565b73ffffffffffffffffffffffffffffffffffffffff16611c7e610d3d565b73ffffffffffffffffffffffffffffffffffffffff1614611cd4576040517f08c379a0000000000000000000000000000000000000000000000000000000008152600401611ccb90613ad8565b60405180910390fd5b565b6000600660009054906101000a900473ffffffffffffffffffffffffffffffffffffffff16905081600660006101000a81548173ffffffffffffffffffffffffffffffffffffffff021916908373ffffffffffffffffffffffffffffffffffffffff1602179055508173ffffffffffffffffffffffffffffffffffffffff168173ffffffffffffffffffffffffffffffffffffffff167f8be0079c531659141344cd1fd0a4f28419497f9722a3daafe3b4186f6b6457e060405160405180910390a35050565b8173ffffffffffffffffffffffffffffffffffffffff168373ffffffffffffffffffffffffffffffffffffffff1603611e0a576040517f08c379a0000000000000000000000000000000000000000000000000000000008152600401611e0190613b44565b60405180910390fd5b80600560008573ffffffffffffffffffffffffffffffffffffffff1673ffffffffffffffffffffffffffffffffffffffff16815260200190815260200160002060008473ffffffffffffffffffffffffffffffffffffffff1673ffffffffffffffffffffffffffffffffffffffff16815260200190815260200160002060006101000a81548160ff0219169083151502179055508173ffffffffffffffffffffffffffffffffffffffff168373ffffffffffffffffffffffffffffffffffffffff167f17307eab39ab6107e8899845ad3d59bd9653f200f220920489ca2b5937696c3183604051611efb919061270a565b60405180910390a3505050565b611f13848484611705565b611f1f84848484612304565b611f5e576040517f08c379a0000000000000000000000000000000000000000000000000000000008152600401611f5590613bd6565b60405180910390fd5b50505050565b606060405180602001604052806000815250905090565b606060006001611f8a8461248b565b01905060008167ffffffffffffffff811115611fa957611fa8612a05565b5b6040519080825280601f01601f191660200182016040528015611fdb5781602001600182028036833780820191505090505b509050600082602001820190505b60011561203e578080600190039150507f3031323334353637383961626364656600000000000000000000000000000000600a86061a8153600a858161203257612031613bf6565b5b04945060008503611fe9575b819350505050919050565b600061205482610bec565b90506120648160008460016121d8565b61206d82610bec565b90506004600083815260200190815260200160002060006101000a81549073ffffffffffffffffffffffffffffffffffffffff02191690556001600360008373ffffffffffffffffffffffffffffffffffffffff1673ffffffffffffffffffffffffffffffffffffffff168152602001908152602001600020600082825403925050819055506002600083815260200190815260200160002060006101000a81549073ffffffffffffffffffffffffffffffffffffffff021916905581600073ffffffffffffffffffffffffffffffffffffffff168273ffffffffffffffffffffffffffffffffffffffff167fddf252ad1be2c89b69c2b068fc378daa952ba7f163c4a11628f55a4df523b3ef60405160405180910390a46121938160008460016122fe565b5050565b60008073ffffffffffffffffffffffffffffffffffffffff166121b983611c1b565b73ffffffffffffffffffffffffffffffffffffffff1614159050919050565b60018111156122f857600073ffffffffffffffffffffffffffffffffffffffff168473ffffffffffffffffffffffffffffffffffffffff161461226c5780600360008673ffffffffffffffffffffffffffffffffffffffff1673ffffffffffffffffffffffffffffffffffffffff16815260200190815260200160002060008282546122649190613c25565b925050819055505b600073ffffffffffffffffffffffffffffffffffffffff168373ffffffffffffffffffffffffffffffffffffffff16146122f75780600360008573ffffffffffffffffffffffffffffffffffffffff1673ffffffffffffffffffffffffffffffffffffffff16815260200190815260200160002060008282546122ef919061337c565b925050819055505b5b50505050565b50505050565b60006123258473ffffffffffffffffffffffffffffffffffffffff166125de565b1561247e578373ffffffffffffffffffffffffffffffffffffffff1663150b7a0261234e6115af565b8786866040518563ffffffff1660e01b81526004016123709493929190613cae565b6020604051808303816000875af19250505080156123ac57506040513d601f19601f820116820180604052508101906123a99190613d0f565b60015b61242e573d80600081146123dc576040519150601f19603f3d011682016040523d82523d6000602084013e6123e1565b606091505b506000815103612426576040517f08c379a000000000000000000000000000000000000000000000000000000000815260040161241d90613bd6565b60405180910390fd5b805181602001fd5b63150b7a0260e01b7bffffffffffffffffffffffffffffffffffffffffffffffffffffffff1916817bffffffffffffffffffffffffffffffffffffffffffffffffffffffff191614915050612483565b600190505b949350505050565b600080600090507a184f03e93ff9f4daa797ed6e38ed64bf6a1f01000000000000000083106124e9577a184f03e93ff9f4daa797ed6e38ed64bf6a1f01000000000000000083816124df576124de613bf6565b5b0492506040810190505b6d04ee2d6d415b85acef81000000008310612526576d04ee2d6d415b85acef8100000000838161251c5761251b613bf6565b5b0492506020810190505b662386f26fc10000831061255557662386f26fc10000838161254b5761254a613bf6565b5b0492506010810190505b6305f5e100831061257e576305f5e100838161257457612573613bf6565b5b0492506008810190505b61271083106125a357612710838161259957612598613bf6565b5b0492506004810190505b606483106125c657606483816125bc576125bb613bf6565b5b0492506002810190505b600a83106125d5576001810190505b80915050919050565b6000808273ffffffffffffffffffffffffffffffffffffffff163b119050919050565b6040518060e001604052806000815260200160008152602001600081526020016000815260200160608152602001600015158152602001600073ffffffffffffffffffffffffffffffffffffffff1681525090565b6000604051905090565b600080fd5b600080fd5b60007fffffffff0000000000000000000000000000000000000000000000000000000082169050919050565b61269f8161266a565b81146126aa57600080fd5b50565b6000813590506126bc81612696565b92915050565b6000602082840312156126d8576126d7612660565b5b60006126e6848285016126ad565b91505092915050565b60008115159050919050565b612704816126ef565b82525050565b600060208201905061271f60008301846126fb565b92915050565b6000819050919050565b61273881612725565b811461274357600080fd5b50565b6000813590506127558161272f565b92915050565b60006020828403121561277157612770612660565b5b600061277f84828501612746565b91505092915050565b600081519050919050565b600082825260208201905092915050565b60005b838110156127c25780820151818401526020810190506127a7565b60008484015250505050565b6000601f19601f8301169050919050565b60006127ea82612788565b6127f48185612793565b93506128048185602086016127a4565b61280d816127ce565b840191505092915050565b6000602082019050818103600083015261283281846127df565b905092915050565b600073ffffffffffffffffffffffffffffffffffffffff82169050919050565b60006128658261283a565b9050919050565b6128758161285a565b82525050565b6000602082019050612890600083018461286c565b92915050565b61289f8161285a565b81146128aa57600080fd5b50565b6000813590506128bc81612896565b92915050565b600080604083850312156128d9576128d8612660565b5b60006128e7858286016128ad565b92505060206128f885828601612746565b9150509250929050565b60008060006060848603121561291b5761291a612660565b5b6000612929868287016128ad565b935050602061293a868287016128ad565b925050604061294b86828701612746565b9150509250925092565b61295e81612725565b82525050565b600061296f8261283a565b9050919050565b61297f81612964565b82525050565b600060e08201905061299a600083018a612955565b6129a76020830189612955565b6129b46040830188612955565b6129c16060830187612955565b81810360808301526129d381866127df565b90506129e260a08301856126fb565b6129ef60c0830184612976565b98975050505050505050565b600080fd5b600080fd5b7f4e487b7100000000000000000000000000000000000000000000000000000000600052604160045260246000fd5b612a3d826127ce565b810181811067ffffffffffffffff82111715612a5c57612a5b612a05565b5b80604052505050565b6000612a6f612656565b9050612a7b8282612a34565b919050565b600067ffffffffffffffff821115612a9b57612a9a612a05565b5b612aa4826127ce565b9050602081019050919050565b82818337600083830152505050565b6000612ad3612ace84612a80565b612a65565b905082815260208101848484011115612aef57612aee612a00565b5b612afa848285612ab1565b509392505050565b600082601f830112612b1757612b166129fb565b5b8135612b27848260208601612ac0565b91505092915050565b612b39816126ef565b8114612b4457600080fd5b50565b600081359050612b5681612b30565b92915050565b600080600080600060a08688031215612b7857612b77612660565b5b6000612b8688828901612746565b9550506020612b9788828901612746565b9450506040612ba888828901612746565b935050606086013567ffffffffffffffff811115612bc957612bc8612665565b5b612bd588828901612b02565b9250506080612be688828901612b47565b9150509295509295909350565b600060208284031215612c0957612c08612660565b5b6000612c17848285016128ad565b91505092915050565b6000602082019050612c356000830184612955565b92915050565b60008060408385031215612c5257612c51612660565b5b6000612c60858286016128ad565b9250506020612c7185828601612b47565b9150509250929050565b600067ffffffffffffffff821115612c9657612c95612a05565b5b612c9f826127ce565b9050602081019050919050565b6000612cbf612cba84612c7b565b612a65565b905082815260208101848484011115612cdb57612cda612a00565b5b612ce6848285612ab1565b509392505050565b600082601f830112612d0357612d026129fb565b5b8135612d13848260208601612cac565b91505092915050565b60008060008060808587031215612d3657612d35612660565b5b6000612d44878288016128ad565b9450506020612d55878288016128ad565b9350506040612d6687828801612746565b925050606085013567ffffffffffffffff811115612d8757612d86612665565b5b612d9387828801612cee565b91505092959194509250565b60008060408385031215612db657612db5612660565b5b6000612dc4858286016128ad565b9250506020612dd5858286016128ad565b9150509250929050565b7f43616e6e6f742065787069726520616e206f7074696f6e20746861742069732060008201527f7374696c6c2065786563757461626c6500000000000000000000000000000000602082015250565b6000612e3b603083612793565b9150612e4682612ddf565b604082019050919050565b60006020820190508181036000830152612e6a81612e2e565b9050919050565b7f4e487b7100000000000000000000000000000000000000000000000000000000600052602260045260246000fd5b60006002820490506001821680612eb857607f821691505b602082108103612ecb57612eca612e71565b5b50919050565b7f4552433732313a20617070726f76616c20746f2063757272656e74206f776e6560008201527f7200000000000000000000000000000000000000000000000000000000000000602082015250565b6000612f2d602183612793565b9150612f3882612ed1565b604082019050919050565b60006020820190508181036000830152612f5c81612f20565b9050919050565b7f4552433732313a20617070726f76652063616c6c6572206973206e6f7420746f60008201527f6b656e206f776e6572206f7220617070726f76656420666f7220616c6c000000602082015250565b6000612fbf603d83612793565b9150612fca82612f63565b604082019050919050565b60006020820190508181036000830152612fee81612fb2565b9050919050565b7f4552433732313a2063616c6c6572206973206e6f7420746f6b656e206f776e6560008201527f72206f7220617070726f76656400000000000000000000000000000000000000602082015250565b6000613051602d83612793565b915061305c82612ff5565b604082019050919050565b6000602082019050818103600083015261308081613044565b9050919050565b7f4e487b7100000000000000000000000000000000000000000000000000000000600052601160045260246000fd5b60006130c182612725565b91507fffffffffffffffffffffffffffffffffffffffffffffffffffffffffffffffff82036130f3576130f2613087565b5b600182019050919050565b60008190508160005260206000209050919050565b60006020601f8301049050919050565b600082821b905092915050565b6000600883026131607fffffffffffffffffffffffffffffffffffffffffffffffffffffffffffffffff82613123565b61316a8683613123565b95508019841693508086168417925050509392505050565b6000819050919050565b60006131a76131a261319d84612725565b613182565b612725565b9050919050565b6000819050919050565b6131c18361318c565b6131d56131cd826131ae565b848454613130565b825550505050565b600090565b6131ea6131dd565b6131f58184846131b8565b505050565b5b818110156132195761320e6000826131e2565b6001810190506131fb565b5050565b601f82111561325e5761322f816130fe565b61323884613113565b81016020851015613247578190505b61325b61325385613113565b8301826131fa565b50505b505050565b600082821c905092915050565b600061328160001984600802613263565b1980831691505092915050565b600061329a8383613270565b9150826002028217905092915050565b6132b382612788565b67ffffffffffffffff8111156132cc576132cb612a05565b5b6132d68254612ea0565b6132e182828561321d565b600060209050601f8311600181146133145760008415613302578287015190505b61330c858261328e565b865550613374565b601f198416613322866130fe565b60005b8281101561334a57848901518255600182019150602085019450602081019050613325565b868310156133675784890151613363601f891682613270565b8355505b6001600288020188555050505b505050505050565b600061338782612725565b915061339283612725565b92508282019050808211156133aa576133a9613087565b5b92915050565b7f4552433732313a20696e76616c696420746f6b656e2049440000000000000000600082015250565b60006133e6601883612793565b91506133f1826133b0565b602082019050919050565b60006020820190508181036000830152613415816133d9565b9050919050565b7f4552433732313a2061646472657373207a65726f206973206e6f74206120766160008201527f6c6964206f776e65720000000000000000000000000000000000000000000000602082015250565b6000613478602983612793565b91506134838261341c565b604082019050919050565b600060208201905081810360008301526134a78161346b565b9050919050565b7f55736572206d757374206f776e20746865204e465420746f206578657263697360008201527f6520746865206f7074696f6e0000000000000000000000000000000000000000602082015250565b600061350a602c83612793565b9150613515826134ae565b604082019050919050565b60006020820190508181036000830152613539816134fd565b9050919050565b7f74686973206973206e6f7420612063616c6c206f7074696f6e00000000000000600082015250565b6000613576601983612793565b915061358182613540565b602082019050919050565b600060208201905081810360008301526135a581613569565b9050919050565b7f4f7074696f6e206973206e6f7420696e20697473206f6e65206461792065786560008201527f7263697361626c652077696e646f770000000000000000000000000000000000602082015250565b6000613608602f83612793565b9150613613826135ac565b604082019050919050565b60006020820190508181036000830152613637816135fb565b9050919050565b60008151905061364d8161272f565b92915050565b60006020828403121561366957613668612660565b5b60006136778482850161363e565b91505092915050565b7f4275796572206d75737420686176652073756666696369656e7420555344432060008201527f746f2065786572636973652061742074686520737472696b6520707269636500602082015250565b60006136dc603f83612793565b91506136e782613680565b604082019050919050565b6000602082019050818103600083015261370b816136cf565b9050919050565b600061372d6137286137238461283a565b613182565b61283a565b9050919050565b600061373f82613712565b9050919050565b600061375182613734565b9050919050565b61376181613746565b82525050565b600060608201905061377c600083018661286c565b6137896020830185613758565b6137966040830184612955565b949350505050565b600081905092915050565b60006137b482612788565b6137be818561379e565b93506137ce8185602086016127a4565b80840191505092915050565b60006137e682856137a9565b91506137f282846137a9565b91508190509392505050565b7f4f776e61626c653a206e6577206f776e657220697320746865207a65726f206160008201527f6464726573730000000000000000000000000000000000000000000000000000602082015250565b600061385a602683612793565b9150613865826137fe565b604082019050919050565b600060208201905081810360008301526138898161384d565b9050919050565b7f4552433732313a207472616e736665722066726f6d20696e636f72726563742060008201527f6f776e6572000000000000000000000000000000000000000000000000000000602082015250565b60006138ec602583612793565b91506138f782613890565b604082019050919050565b6000602082019050818103600083015261391b816138df565b9050919050565b7f4552433732313a207472616e7366657220746f20746865207a65726f2061646460008201527f7265737300000000000000000000000000000000000000000000000000000000602082015250565b600061397e602483612793565b915061398982613922565b604082019050919050565b600060208201905081810360008301526139ad81613971565b9050919050565b7f4552433732313a206d696e7420746f20746865207a65726f2061646472657373600082015250565b60006139ea602083612793565b91506139f5826139b4565b602082019050919050565b60006020820190508181036000830152613a19816139dd565b9050919050565b7f4552433732313a20746f6b656e20616c7265616479206d696e74656400000000600082015250565b6000613a56601c83612793565b9150613a6182613a20565b602082019050919050565b60006020820190508181036000830152613a8581613a49565b9050919050565b7f4f776e61626c653a2063616c6c6572206973206e6f7420746865206f776e6572600082015250565b6000613ac2602083612793565b9150613acd82613a8c565b602082019050919050565b60006020820190508181036000830152613af181613ab5565b9050919050565b7f4552433732313a20617070726f766520746f2063616c6c657200000000000000600082015250565b6000613b2e601983612793565b9150613b3982613af8565b602082019050919050565b60006020820190508181036000830152613b5d81613b21565b9050919050565b7f4552433732313a207472616e7366657220746f206e6f6e20455243373231526560008201527f63656976657220696d706c656d656e7465720000000000000000000000000000602082015250565b6000613bc0603283612793565b9150613bcb82613b64565b604082019050919050565b60006020820190508181036000830152613bef81613bb3565b9050919050565b7f4e487b7100000000000000000000000000000000000000000000000000000000600052601260045260246000fd5b6000613c3082612725565b9150613c3b83612725565b9250828203905081811115613c5357613c52613087565b5b92915050565b600081519050919050565b600082825260208201905092915050565b6000613c8082613c59565b613c8a8185613c64565b9350613c9a8185602086016127a4565b613ca3816127ce565b840191505092915050565b6000608082019050613cc3600083018761286c565b613cd0602083018661286c565b613cdd6040830185612955565b8181036060830152613cef8184613c75565b905095945050505050565b600081519050613d0981612696565b92915050565b600060208284031215613d2557613d24612660565b5b6000613d3384828501613cfa565b9150509291505056fea26469706673582212201302cd2ef9992a4c43ab27016da5d4a55d3d0cff2821ebc8729eb7ff9bab8bb564736f6c63430008110033",
  "linkReferences": {},
  "deployedLinkReferences": {}
}